{
  "contractName": "ProjetContract",
  "abi": [
    {
      "anonymous": false,
      "inputs": [
        {
          "indexed": false,
          "internalType": "uint256",
          "name": "id",
          "type": "uint256"
        },
        {
          "indexed": false,
          "internalType": "address",
          "name": "donateur",
          "type": "address"
        },
        {
          "indexed": false,
          "internalType": "uint256",
          "name": "montant",
          "type": "uint256"
        }
      ],
      "name": "DonEffectue",
      "type": "event"
    },
    {
      "anonymous": false,
      "inputs": [
        {
          "indexed": false,
          "internalType": "uint256",
          "name": "id",
          "type": "uint256"
        },
        {
          "indexed": false,
          "internalType": "string",
          "name": "titre",
          "type": "string"
        },
        {
          "indexed": false,
          "internalType": "address",
          "name": "createur",
          "type": "address"
        }
      ],
      "name": "ProjetCree",
      "type": "event"
    },
    {
      "inputs": [
        {
          "internalType": "uint256",
          "name": "",
          "type": "uint256"
        },
        {
          "internalType": "address",
          "name": "",
          "type": "address"
        }
      ],
      "name": "montantsDonateurs",
      "outputs": [
        {
          "internalType": "uint256",
          "name": "",
          "type": "uint256"
        }
      ],
      "stateMutability": "view",
      "type": "function"
    },
    {
      "inputs": [],
      "name": "projetCount",
      "outputs": [
        {
          "internalType": "uint256",
          "name": "",
          "type": "uint256"
        }
      ],
      "stateMutability": "view",
      "type": "function"
    },
    {
      "inputs": [
        {
          "internalType": "uint256",
          "name": "",
          "type": "uint256"
        }
      ],
      "name": "projets",
      "outputs": [
        {
          "internalType": "uint256",
          "name": "id",
          "type": "uint256"
        },
        {
          "internalType": "string",
          "name": "titre",
          "type": "string"
        },
        {
          "internalType": "string",
          "name": "description",
          "type": "string"
        },
        {
          "internalType": "address",
          "name": "createur",
          "type": "address"
        },
        {
          "internalType": "uint256",
          "name": "montantTotal",
          "type": "uint256"
        }
      ],
      "stateMutability": "view",
      "type": "function"
    },
    {
      "inputs": [
        {
          "internalType": "string",
          "name": "_titre",
          "type": "string"
        },
        {
          "internalType": "string",
          "name": "_description",
          "type": "string"
        }
      ],
      "name": "creerProjet",
      "outputs": [],
      "stateMutability": "nonpayable",
      "type": "function"
    },
    {
      "inputs": [
        {
          "internalType": "uint256",
          "name": "_projetId",
          "type": "uint256"
        }
      ],
      "name": "soutenirProjet",
      "outputs": [],
      "stateMutability": "payable",
      "type": "function"
    },
    {
      "inputs": [
        {
          "internalType": "uint256",
          "name": "_projetId",
          "type": "uint256"
        }
      ],
      "name": "getProjetDonateurs",
      "outputs": [
        {
          "internalType": "address[]",
          "name": "",
          "type": "address[]"
        }
      ],
      "stateMutability": "view",
      "type": "function"
    },
    {
      "inputs": [
        {
          "internalType": "uint256",
          "name": "_projetId",
          "type": "uint256"
        },
        {
          "internalType": "address",
          "name": "_donateur",
          "type": "address"
        }
      ],
      "name": "getDonateurMontant",
      "outputs": [
        {
          "internalType": "uint256",
          "name": "",
          "type": "uint256"
        }
      ],
      "stateMutability": "view",
      "type": "function"
    }
  ],
  "bytecode": "0x608060405234801561000f575f80fd5b5061117e8061001d5f395ff3fe60806040526004361061006f575f3560e01c806333a5f59a1161004d57806333a5f59a1461011357806355bc931c1461014f57806366459d0c1461016b578063e190550d146101955761006f565b806317f06bf6146100735780631a6a10ff146100af5780632996f07b146100d7575b5f80fd5b34801561007e575f80fd5b50610099600480360381019061009491906108d7565b6101d5565b6040516100a69190610924565b60405180910390f35b3480156100ba575f80fd5b506100d560048036038101906100d09190610a79565b6101f5565b005b3480156100e2575f80fd5b506100fd60048036038101906100f89190610aef565b61038d565b60405161010a9190610bd1565b60405180910390f35b34801561011e575f80fd5b50610139600480360381019061013491906108d7565b610431565b6040516101469190610924565b60405180910390f35b61016960048036038101906101649190610aef565b610487565b005b348015610176575f80fd5b5061017f610635565b60405161018c9190610924565b60405180910390f35b3480156101a0575f80fd5b506101bb60048036038101906101b69190610aef565b61063a565b6040516101cc959493929190610c7a565b60405180910390f35b6002602052815f5260405f20602052805f5260405f205f91509150505481565b5f8081548092919061020690610d06565b91905055506040518060c001604052805f5481526020018381526020018281526020013373ffffffffffffffffffffffffffffffffffffffff1681526020015f81526020015f67ffffffffffffffff81111561026557610264610955565b5b6040519080825280602002602001820160405280156102935781602001602082028036833780820191505090505b5081525060015f805481526020019081526020015f205f820151815f015560208201518160010190816102c69190610f47565b5060408201518160020190816102dc9190610f47565b506060820151816003015f6101000a81548173ffffffffffffffffffffffffffffffffffffffff021916908373ffffffffffffffffffffffffffffffffffffffff1602179055506080820151816004015560a0820151816005019080519060200190610349929190610797565b509050507f7f908a4031f85756e975eb1548db7a525be9ccb88e4f2dc7322928e6eb7b58f45f54833360405161038193929190611016565b60405180910390a15050565b60605f60015f8481526020019081526020015f2090508060050180548060200260200160405190810160405280929190818152602001828054801561042457602002820191905f5260205f20905b815f9054906101000a900473ffffffffffffffffffffffffffffffffffffffff1673ffffffffffffffffffffffffffffffffffffffff16815260200190600101908083116103db575b5050505050915050919050565b5f60025f8481526020019081526020015f205f8373ffffffffffffffffffffffffffffffffffffffff1673ffffffffffffffffffffffffffffffffffffffff1681526020019081526020015f2054905092915050565b5f60015f8381526020019081526020015f2090505f60025f8481526020019081526020015f205f3373ffffffffffffffffffffffffffffffffffffffff1673ffffffffffffffffffffffffffffffffffffffff1681526020019081526020015f205414610529576040517f08c379a0000000000000000000000000000000000000000000000000000000008152600401610520906110c2565b60405180910390fd5b3460025f8481526020019081526020015f205f3373ffffffffffffffffffffffffffffffffffffffff1673ffffffffffffffffffffffffffffffffffffffff1681526020019081526020015f20819055508060050133908060018154018082558091505060019003905f5260205f20015f9091909190916101000a81548173ffffffffffffffffffffffffffffffffffffffff021916908373ffffffffffffffffffffffffffffffffffffffff16021790555034816004015f8282546105ef91906110e0565b925050819055507fcb33601b8cfb45ffa10a7cee27105fbce2b09bbd7820a9f9b7eb32c3755981ce82333460405161062993929190611113565b60405180910390a15050565b5f5481565b6001602052805f5260405f205f91509050805f01549080600101805461065f90610d7a565b80601f016020809104026020016040519081016040528092919081815260200182805461068b90610d7a565b80156106d65780601f106106ad576101008083540402835291602001916106d6565b820191905f5260205f20905b8154815290600101906020018083116106b957829003601f168201915b5050505050908060020180546106eb90610d7a565b80601f016020809104026020016040519081016040528092919081815260200182805461071790610d7a565b80156107625780601f1061073957610100808354040283529160200191610762565b820191905f5260205f20905b81548152906001019060200180831161074557829003601f168201915b505050505090806003015f9054906101000a900473ffffffffffffffffffffffffffffffffffffffff16908060040154905085565b828054828255905f5260205f2090810192821561080d579160200282015b8281111561080c578251825f6101000a81548173ffffffffffffffffffffffffffffffffffffffff021916908373ffffffffffffffffffffffffffffffffffffffff160217905550916020019190600101906107b5565b5b50905061081a919061081e565b5090565b5b80821115610835575f815f90555060010161081f565b5090565b5f604051905090565b5f80fd5b5f80fd5b5f819050919050565b61085c8161084a565b8114610866575f80fd5b50565b5f8135905061087781610853565b92915050565b5f73ffffffffffffffffffffffffffffffffffffffff82169050919050565b5f6108a68261087d565b9050919050565b6108b68161089c565b81146108c0575f80fd5b50565b5f813590506108d1816108ad565b92915050565b5f80604083850312156108ed576108ec610842565b5b5f6108fa85828601610869565b925050602061090b858286016108c3565b9150509250929050565b61091e8161084a565b82525050565b5f6020820190506109375f830184610915565b92915050565b5f80fd5b5f80fd5b5f601f19601f8301169050919050565b7f4e487b71000000000000000000000000000000000000000000000000000000005f52604160045260245ffd5b61098b82610945565b810181811067ffffffffffffffff821117156109aa576109a9610955565b5b80604052505050565b5f6109bc610839565b90506109c88282610982565b919050565b5f67ffffffffffffffff8211156109e7576109e6610955565b5b6109f082610945565b9050602081019050919050565b828183375f83830152505050565b5f610a1d610a18846109cd565b6109b3565b905082815260208101848484011115610a3957610a38610941565b5b610a448482856109fd565b509392505050565b5f82601f830112610a6057610a5f61093d565b5b8135610a70848260208601610a0b565b91505092915050565b5f8060408385031215610a8f57610a8e610842565b5b5f83013567ffffffffffffffff811115610aac57610aab610846565b5b610ab885828601610a4c565b925050602083013567ffffffffffffffff811115610ad957610ad8610846565b5b610ae585828601610a4c565b9150509250929050565b5f60208284031215610b0457610b03610842565b5b5f610b1184828501610869565b91505092915050565b5f81519050919050565b5f82825260208201905092915050565b5f819050602082019050919050565b610b4c8161089c565b82525050565b5f610b5d8383610b43565b60208301905092915050565b5f602082019050919050565b5f610b7f82610b1a565b610b898185610b24565b9350610b9483610b34565b805f5b83811015610bc4578151610bab8882610b52565b9750610bb683610b69565b925050600181019050610b97565b5085935050505092915050565b5f6020820190508181035f830152610be98184610b75565b905092915050565b5f81519050919050565b5f82825260208201905092915050565b5f5b83811015610c28578082015181840152602081019050610c0d565b5f8484015250505050565b5f610c3d82610bf1565b610c478185610bfb565b9350610c57818560208601610c0b565b610c6081610945565b840191505092915050565b610c748161089c565b82525050565b5f60a082019050610c8d5f830188610915565b8181036020830152610c9f8187610c33565b90508181036040830152610cb38186610c33565b9050610cc26060830185610c6b565b610ccf6080830184610915565b9695505050505050565b7f4e487b71000000000000000000000000000000000000000000000000000000005f52601160045260245ffd5b5f610d108261084a565b91507fffffffffffffffffffffffffffffffffffffffffffffffffffffffffffffffff8203610d4257610d41610cd9565b5b600182019050919050565b7f4e487b71000000000000000000000000000000000000000000000000000000005f52602260045260245ffd5b5f6002820490506001821680610d9157607f821691505b602082108103610da457610da3610d4d565b5b50919050565b5f819050815f5260205f209050919050565b5f6020601f8301049050919050565b5f82821b905092915050565b5f60088302610e067fffffffffffffffffffffffffffffffffffffffffffffffffffffffffffffffff82610dcb565b610e108683610dcb565b95508019841693508086168417925050509392505050565b5f819050919050565b5f610e4b610e46610e418461084a565b610e28565b61084a565b9050919050565b5f819050919050565b610e6483610e31565b610e78610e7082610e52565b848454610dd7565b825550505050565b5f90565b610e8c610e80565b610e97818484610e5b565b505050565b5b81811015610eba57610eaf5f82610e84565b600181019050610e9d565b5050565b601f821115610eff57610ed081610daa565b610ed984610dbc565b81016020851015610ee8578190505b610efc610ef485610dbc565b830182610e9c565b50505b505050565b5f82821c905092915050565b5f610f1f5f1984600802610f04565b1980831691505092915050565b5f610f378383610f10565b9150826002028217905092915050565b610f5082610bf1565b67ffffffffffffffff811115610f6957610f68610955565b5b610f738254610d7a565b610f7e828285610ebe565b5f60209050601f831160018114610faf575f8415610f9d578287015190505b610fa78582610f2c565b86555061100e565b601f198416610fbd86610daa565b5f5b82811015610fe457848901518255600182019150602085019450602081019050610fbf565b868310156110015784890151610ffd601f891682610f10565b8355505b6001600288020188555050505b505050505050565b5f6060820190506110295f830186610915565b818103602083015261103b8185610c33565b905061104a6040830184610c6b565b949350505050565b7f566f7573206176657a2064656a61206661697420756e20646f6e2061206365205f8201527f70726f6a65740000000000000000000000000000000000000000000000000000602082015250565b5f6110ac602683610bfb565b91506110b782611052565b604082019050919050565b5f6020820190508181035f8301526110d9816110a0565b9050919050565b5f6110ea8261084a565b91506110f58361084a565b925082820190508082111561110d5761110c610cd9565b5b92915050565b5f6060820190506111265f830186610915565b6111336020830185610c6b565b6111406040830184610915565b94935050505056fea264697066735822122058efe465ae7a2291ede1e1ae68ae889857a25bdf093fdc966e4b8a6a0051f3b364736f6c63430008140033",
  "immutableReferences": {},
  "source": "// SPDX-License-Identifier: MIT\r\n\r\npragma solidity ^0.8.8;\r\n\r\ncontract ProjetContract {\r\n    struct Projet {\r\n        uint256 id;\r\n        string titre;\r\n        string description;\r\n        address createur;\r\n        uint256 montantTotal;\r\n        address[] donateursListe;\r\n    }\r\n\r\n    uint256 public projetCount;\r\n    mapping(uint256 => Projet) public projets;\r\n    mapping(uint256 => mapping(address => uint256)) public montantsDonateurs;\r\n\r\n    event ProjetCree(uint256 id, string titre, address createur);\r\n    event DonEffectue(uint256 id, address donateur, uint256 montant);\r\n\r\n    function creerProjet(string memory _titre, string memory _description) public {\r\n        projetCount++;\r\n        projets[projetCount] = Projet(\r\n            projetCount,\r\n            _titre,\r\n            _description,\r\n            msg.sender,\r\n            0,\r\n            new address[](0)\r\n        );\r\n\r\n        emit ProjetCree(projetCount, _titre, msg.sender);\r\n    }\r\n\r\n    function soutenirProjet(uint256 _projetId) public payable {\r\n        Projet storage projet = projets[_projetId];\r\n        require(montantsDonateurs[_projetId][msg.sender] == 0, \"Vous avez deja fait un don a ce projet\");\r\n\r\n        montantsDonateurs[_projetId][msg.sender] = msg.value;\r\n        projet.donateursListe.push(msg.sender);\r\n        projet.montantTotal += msg.value;\r\n\r\n        emit DonEffectue(_projetId, msg.sender, msg.value);\r\n    }\r\n\r\n    function getProjetDonateurs(uint256 _projetId) public view returns (address[] memory) {\r\n        Projet storage projet = projets[_projetId];\r\n        return projet.donateursListe;\r\n    }\r\n\r\n    function getDonateurMontant(uint256 _projetId, address _donateur)\r\n        public\r\n        view\r\n        returns (uint256)\r\n    {\r\n        return montantsDonateurs[_projetId][_donateur];\r\n    }\r\n}\r\n",
  "sourcePath": "C:\\Users\\pc\\OneDrive\\Bureau\\22\\contracts\\projet.sol",
  "compiler": {
    "name": "solc",
    "version": "0.8.20+commit.a1b79de6.Emscripten.clang"
  },
  "schemaVersion": "3.4.14",
  "updatedAt": "2023-06-12T16:24:37.990Z",
  "devdoc": {
    "kind": "dev",
    "methods": {},
    "version": 1
  },
  "userdoc": {
    "kind": "user",
    "methods": {},
    "version": 1
  }
}